:020000040800F2
:1000000090060020CD010008B5070008430700084E
:10001000B1070008ED040008770D0008000000009B
:100020000000000000000000000000004908000877
:10003000F104000800000000CD0700085D09000879
:10004000E7010008E7010008E7010008E7010008F0
:10005000E7010008E7010008E7010008E7010008E0
:10006000E7010008E7010008E7010008E7010008D0
:10007000E7010008E7010008E7010008E7010008C0
:10008000E7010008E7010008E7010008E7010008B0
:10009000E7010008E7010008E7010008F50400088F
:1000A000E7010008E7010008E7010008E701000890
:1000B000E7010008E7010008E7010008E701000880
:1000C000E7010008E7010008E7010008E701000870
:1000D000E7010008ED0C0008E7010008E70100084F
:1000E000E7010008E7010008E7010008E701000850
:1000F000E7010008E7010008E7010008E701000840
:10010000E7010008E7010008E7010008E70100082F
:10011000E7010008E7010008E7010008E70100081F
:10012000E7010008E7010008E7010008E70100080F
:1001300000F002F800F03AF80AA090E8000C8244BF
:100140008344AAF10107DA4501D100F02FF8AFF29C
:10015000090EBAE80F0013F0010F18BFFB1A43F0A5
:1001600001031847D0170000F0170000103A24BF11
:1001700078C878C1FAD8520724BF30C830C144BF0C
:1001800004680C607047000000230024002500264E
:10019000103A28BF78C1FBD8520728BF30C148BFEA
:1001A0000B6070471FB51FBD10B510BD00F033F8D0
:1001B0001146FFF7F7FF00F02BFE00F051F803B4F3
:1001C000FFF7F2FF03BC00F0D8FD000009488047AC
:1001D00009480047FEE7FEE7FEE7FEE7FEE7FEE729
:1001E000FEE7FEE7FEE7FEE704480549054A064B41
:1001F00070470000610900083101000890000020EC
:100200009006002090020020900200207047704766
:10021000704770477047754600F028F8AE460500F5
:100220006946534620F00700854618B020B5FFF711
:10023000DBFFBDE820404FF000064FF000074FF015
:1002400000084FF0000B21F00701AC46ACE8C009F4
:10025000ACE8C009ACE8C009ACE8C0098D467047FD
:100260000446AFF300802046FFF7A9FF004870471F
:100270002C00002021B1826842F00102826003E07C
:10028000826822F0010282607047000010B50446C7
:100290001248844208D10121401500F0C5FA00211E
:1002A000601500F0C1FA17E00D48844208D1012121
:1002B000001500F0B9FA0021201500F0B5FA0BE0A6
:1002C0000848844208D10121C80300F0ADFA00219A
:1002D0004FF4004000F0A8FA10BD000000240140D7
:1002E00000280140003C0140014600208A6802F0DD
:1002F00004020AB1012000E0002070470146C86CEA
:1003000080B270470246002013680B400BB10120F9
:1003100000E000207047014600208A6802F00802D1
:100320000AB1012000E000207047000030B502460D
:100330000020002350680F4C20400D790C6844EADF
:1003400005242043506090680B4C2040D1E90254B2
:100350002C434D7944EA450420439060D06A20F450
:1003600070000C7C641EE4B2234340EA0350D06268
:1003700030BD0000FFFEF0FFFDF7F1FFF0B50446D1
:100380000D4600200021092D11DDE068A5F10A06C7
:1003900006EB4607072606FA07F18843A5F10A0689
:1003A00006EB460603FA06F10843E0600CE020691C
:1003B00005EB4507072606FA07F1884305EB4506D6
:1003C00003FA06F108432061072A0FDA606B561E14
:1003D00006EB86071F2606FA07F18843561E06EB32
:1003E000860605FA06F10843606322E00D2A0FDA5B
:1003F000206BD61F06EB86071F2606FA07F18843F7
:10040000D61F06EB860605FA06F10843206310E0C6
:10041000E06AA2F10D0606EB86071F2606FA07F131
:100420008843A2F10D0606EB860605FA06F108439D
:10043000E062F0BD816841F008018160704721B140
:10044000826842F4A002826003E0826822F4A00283
:1004500082607047816841F004018160704700004C
:1004600000B587B001214FF4017000F0CDF94FF4D1
:10047000004000F0ADF91F20ADF8040000208DF819
:10048000070001A9174800F09FF81748FFF7FEFE84
:10049000002002908DF80C008DF80D004FF46020C4
:1004A00004900020059001208DF8180002A90E4844
:1004B000FFF73CFF01210C48FFF7DCFE0A48FFF77D
:1004C000B9FF00BF0848FFF726FF0028FAD1064809
:1004D000FFF7C0FF00BF0448FFF706FF0028FAD16E
:1004E00007B000BD000801400024014000BFFEE746
:1004F0007047000010B5002406E001244FF4167187
:100500006FF0C70001F0A2F92A480068012804D161
:100510002848001F00680028EFD006E002246FF092
:10052000C7014FF4167001F091F92248006820B914
:100530002048001F00680128F0D01E4800680128EC
:100540002FD11C48001F006801282AD1012C04D19A
:100550001949C82001F07AF905E0022C03D1C8211D
:10056000154801F073F900BF1349FA39084601F044
:100570006DF91048006820B10E48001F006800287F
:10058000F2D14FF41671084601F060F9052000F031
:1005900019FC09493231484201F058F9DC2000F0D9
:1005A00011FC4FF4807000F009F8802000F006F88C
:1005B00010BD000020012242DAFDFFFF0149086062
:1005C00070470000140401402DE9F0410246002567
:1005D0000026002000230024002791F803C00CF01F
:1005E0000F0591F803C00CF0100CBCF1000F03D004
:1005F00091F802C04CEA050591F800C0BCF1000F6B
:1006000031D0146800202BE04FF0010C0CFA00F3FD
:10061000B1F800C00CEA03069E4220D183004FF0DF
:100620000F0C0CFA03F7BC4305FA03FC4CEA040474
:1006300091F803C0BCF1280F06D14FF0010C0CFA61
:1006400000FCC2F814C00AE091F803C0BCF1480FE6
:1006500005D14FF0010C0CFA00FCC2F810C0401C90
:100660000828D1D31460B1F800C0BCF1FF0F34DD0D
:10067000546800202EE000F1080C4FF0010808FA41
:100680000CF3B1F800C00CEA03069E4221D18300AE
:100690004FF00F0C0CFA03F7BC4305FA03FC4CEACD
:1006A000040491F803C0BCF1280F05D100F1080C37
:1006B00008FA0CF8C2F8148091F803C0BCF1480F96
:1006C00007D100F1080C4FF0010808FA0CF8C2F845
:1006D0001080401C0828CED35460BDE8F081000093
:1006E00010B504460723012221460948FFF746FEBC
:1006F00001210748FFF7A3FE00BF02210448FFF7CE
:1007000001FE0028F9D00248FFF7F8FD10BD0000F7
:10071000002401402DE9F04107460C460025002643
:1007200008E03846FFF7DCFF0544052000F04AFBEF
:10073000701CC6B2A642F4DBB5FBF4F080B2BDE893
:10074000F08100BFFEE7000008B50121082000F09D
:100750005BF80121102000F057F80121042000F07F
:1007600053F848208DF8030003208DF802004FF461
:100770008060ADF8000069460C48FFF725FF0820AF
:10078000ADF8000069460948FFF71EFF0120ADF8EB
:10079000000069460548FFF717FF4FF40050ADF819
:1007A000000069460148FFF70FFF08BD0010014037
:1007B00000BFFEE77047000002490143024A116092
:1007C000704700000000FA050CED00E070470000E3
:1007D00001460020034A506820F44040084350601E
:1007E000704700000010024029B1064AD269024356
:1007F000044BDA6104E0034AD2698243014BDA61B7
:10080000704700000010024029B1064A9269024375
:10081000044B9A6104E0034A92698243014B9A6156
:10082000704700000010024029B1064AD268024316
:10083000044BDA6004E0034AD2688243014BDA6079
:100840007047000000100240704710B500F002F839
:1008500010BD00000CB500200190009033480068E6
:1008600040F480303149086000BF3048006800F42F
:10087000003000900198401C0190009818B9019830
:10088000B0F5A06FF1D12948006800F4003010B134
:100890000120009001E0002000900098012843D141
:1008A0002348006840F010002149086008460068AD
:1008B00020F0030008600846006840F0020008606D
:1008C0001A48406819494860084640684860084628
:1008D000406840F4806048600846406820F47C101E
:1008E00048600846406840F4E810486008460068E0
:1008F00040F08070086000BF0C48006800F0007095
:100900000028F9D00948406820F0030007494860F2
:100910000846406840F00200486000BF0348406855
:1009200000F00C000828F9D10CBD000000100240B6
:1009300000200240042808D14FF0E021096941F06D
:1009400004014FF0E022116107E04FF0E021096956
:1009500021F004014FF0E022116170477047000060
:1009600010B51348006840F00100114908600846BE
:100970004068104908400E494860084600680E4922
:1009800008400B4908600846006820F48020086091
:100990000846406820F4FE0048604FF41F0088605D
:1009A000FFF753FF4FF000600449086010BD0000DE
:1009B000001002400000FFF8FFFFF6FE08ED00E027
:1009C00030B589B005460C4601210820FFF71CFF11
:1009D00001211020FFF718FF01210220FFF704FF7B
:1009E00018208DF8230003208DF822000120ADF897
:1009F000200008A93048FFF7E7FD0220ADF82000ED
:100A000008A92D48FFF7E0FD10208DF823000320F2
:100A10008DF822004020ADF8200008A92748FFF7F4
:100A2000D3FD8020ADF8200008A92448FFF7CCFDB5
:100A30004FF48070ADF8200008A92048FFF7C4FDEE
:100A40004FF40070ADF8200008A91C48FFF7BCFD6A
:100A5000ADF81850ADF814400020ADF81A00ADF80C
:100A6000160005A9164800F0EFF87020ADF8040054
:100A70000120ADF806000020ADF80A000220ADF814
:100A80000C0001A90E4800F035F801A90C4800F04F
:100A90008BF808210A4800F07DF80821084800F08A
:100AA000C1F80121064800F00DF80121044800F0CA
:100AB00015F809B030BD0000000C014000100140E5
:100AC0000004004021B1028842F08002028004E06C
:100AD00002884FF67F731A400280704721B1028866
:100AE00042F00102028004E002884FF6FE731A40D1
:100AF0000280704770B5002400220023058C4FF659
:100B0000FF6635400584028C8388848B4FF68F7591
:100B10002C404FF6FC752C400D882C434FF6FF55AA
:100B20002A400D894FF6FF7606EA05252A434D88AF
:100B300006EA05252A43154DA84202D0144DA842C5
:100B40001DD14FF2FF752A404D894FF6FF7606EA18
:100B500005252A434FF6FF352A408D8806EA0525EC
:100B60002A434EF6FF752B404DF6FF752B408D89BD
:100B700006EA05152B43CD8906EA05152B4383802C
:100B80008483CD888587028470BD0000002C0140DD
:100B9000003401400A460021818B4FF6F77319405B
:100BA000114381837047000070B5002200230024A8
:100BB000058C4EF6FF7635400584038C8488828B45
:100BC00048F6FF752A404FF6FF452A400D884FF63C
:100BD000FF7606EA05252A434DF6FF752B400D8961
:100BE00006EA05352B434D8806EA05352B430B4DA8
:100BF000A84202D00A4DA84208D14BF6FF752C40FE
:100C00008D894FF6FF7606EA85152C438480828312
:100C1000CD88A0F84050038470BD0000002C014036
:100C2000003401400A460021818B4FF2FF731940C6
:100C30004FF6FF7303EA02231943818370478187CC
:100C40007047A0F840107047002202881D4B984260
:100C50000ED01D4B98420BD0B0F1804F08D01B4BEB
:100C6000984205D01A4B984202D01A4B984204D1B0
:100C70004FF68F731A404B881A43174B984207D090
:100C8000164B984204D04FF6FF431A40CB881A43C4
:100C900002808B8883850B8803850A4B98420BD092
:100CA000094B984208D00E4B984205D00D4B984204
:100CB00002D00D4B984201D10B7A03860123838227
:100CC00070470000002C0140003401400004004047
:100CD00000080040000C00400010004000140040DC
:100CE00000400140004401400048014010B540F27E
:100CF0002551064800F010F838B1044800F036F8E5
:100D00000349087001200349088010BD00380140E4
:100D10002A0000202800002070B50246002400238D
:100D20000025002040F66A16B14200D100BFC1F391
:100D3000421501F01F03012606FA03F3012D02D12B
:100D40009689334006E0022D02D1168A334001E035
:100D5000968A33400C12012606FA04F416883440B1
:100D600013B10CB1012000E0002070BD014688885D
:100D7000C0F30800704700BFFEE7014600BF7047A0
:100D800010B56FF00400FFF7D5FD0A4800680A4966
:100D9000B0FBF1F0094908700846007800EB40010B
:100DA000C1EBC0104FF6FF7101EAC0000449088092
:100DB00010BD00000800002000127A001C00002076
:100DC0001E0000200146114A12884A434FF0E023DA
:100DD0005A6100229A611A46126942F001021A61B0
:100DE00000BF4FF0E022106900F001021AB100F4D8
:100DF0008032002AF5D04FF0E022126922F0010281
:100E00004FF0E0231A6100229A6170471E00002013
:100E1000FFF7B6FF4FF4A060FFF7CEFCFFF794FC9E
:100E2000002140F28330FFF7CBFDFFF719FB00BF35
:100E3000FE4800680028FBD100F068FD07E2FC488E
:100E4000006800287ED002210020FFF763FC40F6F6
:100E5000FC01884259DD02210020FFF75BFC40F6CF
:100E6000FC01884252DD02210320FFF753FC0446B7
:100E700002210846FFF74EFC201A052846DD022114
:100E80000020FFF747FC044602210320FFF742FC45
:100E900084420ADC02210020FFF73CFC04460221C8
:100EA0000846FFF737FC8442D4DDE0480C38006880
:100EB00018B1DE482838006840B9DE49084600F01D
:100EC000C5FC4FF4E170FFF77DFF07E0D949084604
:100ED00000F0BCFC4FF49670FFF774FF64210846E5
:100EE00000F0B4FC0520FFF76DFF40F28A21484274
:100EF00000F0ACFCB420FFF765FFCD48006808B9EE
:100F0000012000E00020CA490860A2E00221002080
:100F1000FFF700FC40F6FC01884254DD0221084640
:100F2000FFF7F8FB044602210320FFF7F3FB201A2A
:100F3000052848DD02210020FFF7ECFB04460221D2
:100F4000032000E0F0E1FFF7E5FB84420ADC022128
:100F50000020FFF7DFFB044602210846FFF7DAFB1B
:100F6000844276DDB1480C38006818B1AF482838A3
:100F7000006840B9AF49084600F068FC4FF4E170E2
:100F8000FFF720FF07E0AB49084600F05FFC4FF495
:100F90009670FFF717FF6421084600F057FC052004
:100FA000FFF710FFA349F831484200F04FFCB4208E
:100FB000FFF708FF9E48006808B9012000E0002004
:100FC0009B49086045E002210020FFF7A3FB40F6A3
:100FD000FC0188423DDD02210020FFF79BFB044617
:100FE00002210320FFF796FB84420ADC0221002045
:100FF000FFF790FB044602210846FFF78BFB844273
:1010000027DD8A480C38006818B1884828380068FD
:1010100040B98849084600F019FC4FF4E170FFF729
:10102000D1FE07E08349084600F010FC4FF49670AB
:10103000FFF7C8FE6421084600F008FC0520FFF712
:10104000C1FE7B48006808B9012000E00020784913
:1010500008607748006800287ED074480C38006823
:1010600040B940F28A21084600F0F0FB01207049A7
:101070000860E1E36D482838006840B96D49F831EF
:10108000084600F0E3FB002069490860D4E36748A4
:101090003438006898BB4FF41671674800F0D6FBEF
:1010A00000206649086007E00120FFF78BFE6348D7
:1010B0000068401C6149086060480068B0F5167F10
:1010C00008DA5A480C38006820B1584828380068B7
:1010D0000028E9D155480C38006828B940F28A2127
:1010E000084600F0B3FBA7E3504828380068002802
:1010F000BFD151496439084600F0A8FB9CE3FFE7E3
:101100004A48006848BB4C494FF4167000F09EFBFB
:1011100000204A49086007E00120FFF753FE4748D6
:101120000068401C4549086044480068B0F5167FD7
:1011300008DA3E480C38006820B13C48283800687E
:101140000028E9D139480C38006838B940F28A21C2
:10115000084600F07BFB6FE327E00AE033482838BD
:101160000068002885D134496439084600F06EFBD8
:1011700062E302210020FFF7CDFA40F2D6618842F7
:101180000DDD02210020FFF7C5FA40F6FC01884280
:1011900005DA4FF4C871084600F058FB4CE34FF4F1
:1011A000F071084600F052FB46E320480C38006816
:1011B00040B940F28A21084600F048FB01201C4952
:1011C000086039E319482838006840B91A49643979
:1011D000084600F03BFB0020154908602CE313484B
:1011E0003438006860BB14494FF4167000F02EFBD1
:1011F00000201249086007E00120FFF7E3FD0F48D7
:101200000068401C0D4908600C480068B0F5167F66
:1012100008DA06480C38006820B10448283800680D
:101220000028E9D101480C3800680AE03401224264
:10123000040000207EFCFFFFDAFDFFFF000000201D
:101240000FE028B940F28A21084600F0FFFAF3E2E5
:10125000FB48006800288BD1FA49084600F0F6FAEE
:10126000EAE2F7482830006888BB4FF41671F54869
:10127000643000F0EBFA0020F349086007E0012039
:10128000FFF7A0FDF0480068401CEF490860EE48F9
:101290000068B0F5167F07DAE9481C30006818B11D
:1012A000E74800680028EAD1E5481C30006828B902
:1012B00040F28A21084600F0C9FABDE2E048006821
:1012C00000288BD1DF49084600F0C0FAB4E2FFE7FE
:1012D00002210320FFF71EFA40F2AA51884207DDDF
:1012E00002210320FFF716FA40F23A7188420FDB21
:1012F00002210846FFF70EFA40F2AA5188420DDD9E
:1013000002210846FFF706FA40F23A71884205DAF0
:10131000CC49FA31084600F099FA8DE2C949AA3160
:10132000084600F093FA87E202210320FFF7F2F962
:1013300040F23A71884207DC02210846FFF7EAF9D9
:1013400040F23A71884262DD02210320FFF7E2F9A0
:1013500040F23A71884207DC02210846FFF7DAF9C9
:1013600040F23A71884253DD02210320FFF7D2F99F
:10137000044602210846FFF7CDF9201A052847DD6B
:1013800002210320FFF7C6F9044602210020FFF7DF
:10139000C1F984420ADC02210846FFF7BBF9044682
:1013A00002210020FFF7B6F98442CCDDA4481C30AE
:1013B000006810B1A248006848B940F2823108467E
:1013C00000F044FA4FF4E170FFF7FCFC08E040F253
:1013D0008231084600F03AFA4FF49670FFF7F2FCBB
:1013E0006FF06301084600F031FA0520FFF7EAFCD0
:1013F0009449484200F02AFAB420FFF7E3FC9348EE
:10140000006808B9012000E0002090490860B4E0BD
:1014100002210320FFF77EF940F23A71884207DC8F
:1014200002210846FFF776F940F23A71884254DD0E
:1014300002210846FFF76EF9044602210320FFF758
:1014400069F9201A052848DD02210320FFF762F917
:10145000044602210020FFF75DF984420ADC0221E4
:101460000846FFF757F9044602210020FFF752F91A
:10147000844231DD72481C30006810B17048006849
:1014800048B940F28231084600F0E0F94FF4E170CB
:10149000FFF798FC08E040F28231084600F0D6F9E8
:1014A0004FF49670FFF78EFC6FF06301084600F072
:1014B000CDF90520FFF786FC40F28A21484200F072
:1014C000C5F9B420FFF77EFC6048006808B9012028
:1014D00000E000205D4908604FE002210320FFF793
:1014E00019F940F23A71884207DC02210846FFF7F9
:1014F00011F940F23A7188423FDD02210320FFF7E3
:1015000009F9044602210020FFF704F984420ADCAD
:1015100002210846FFF7FEF8044602210020FFF7EB
:10152000F9F8844229DD46481C30006810B144486F
:10153000006848B940F28231084600F087F94FF45C
:10154000E170FFF73FFC08E040F28231084600F00E
:101550007DF94FF49670FFF735FC6FF06301084694
:1015600000F074F90520FFF72DFC3848006808B931
:10157000012000E000203549086034480068E8B3E5
:101580002F481C30006840B940F28A21084600F01C
:101590005DF901202D4908604EE12948006838B9FD
:1015A0002849084600F052F900202849086043E124
:1015B00023480C38006898BB4FF4167121486430FA
:1015C00000F044F900202049086007E00120FFF7FF
:1015D000F9FB1D480068401C1B4908601A48006858
:1015E000B0F5167F07DA16481C30006818B11448A9
:1015F00000680028EAD112481C3000E06DE0006865
:1016000028B940F28A21084600F020F914E10C487C
:1016100000680028C0D10B49084600F017F90BE11B
:10162000FFE707482830006880BB064964314FF463
:10163000167000F00BF900200349086010E000006C
:101640000C01224276FDFFFF000000200400002074
:101650000120FFF7B7FB79480068401C7749086014
:1016600076480068B0F5167F07DA7548006820B143
:1016700073481C3800680028EAD17148006830B906
:1016800040F28A21084600F0E1F8D5E009E06C4814
:101690001C380068002803D16A49084600F0D6F8D3
:1016A000CAE002210020FFF735F840F2D6618842F7
:1016B0000DDD02210020FFF72DF840F6FC018842E5
:1016C00005DA4FF4C871084600F0C0F8B4E04FF4F2
:1016D000F071084600F0BAF8AEE05948006840B929
:1016E00040F28A21084600F0B1F80120564908600E
:1016F000A2E053481C38006838B95249084600F047
:10170000A5F800205049086096E04D482838006848
:1017100080BB4C4964314FF4167000F097F80020FC
:101720004649086007E00120FFF74CFB434800688A
:10173000401C4249086041480068B0F5167F07DA4E
:101740003F48006820B13E481C3800680028EAD1B4
:101750003B48006828B940F28A21084600F076F834
:101760006AE037481C38006880BB3649084600F0FC
:101770006DF861E0FFE732480C30006880BB4FF441
:1017800016713048643000F061F800202B49086081
:1017900007E00120FFF716FB28480068401C274996
:1017A000086026480068B0F5167F07DA244800680C
:1017B00020B123481C3800680028EAD1204800687E
:1017C00028B940F28A21084600F040F834E01C486D
:1017D0001C38006850BB1B49084600F037F82BE066
:1017E000FFE702210320FEF795FF40F2AA5188424D
:1017F00007DD02210320FEF78DFF40F23A71884297
:101800000FDB02210846FEF785FF40F2AA5188420D
:101810000DDD02210846FEF77DFF40F23A71884255
:1018200005DA0849FA31084600F010F804E00549E5
:10183000AA31084600F00AF8FFF701BB00000020BB
:101840002801224276FDFFFF0400002070B5044607
:101850000D46002C11DB002D0FDB0020284908600D
:1018600001202849C1F89C01002025490831086061
:1018700001202449C1F8A40138E0002C11DD002D1D
:101880000FDA00201E49086001201E49C1F89C01A2
:101890001B490831086000201A49C1F8A4016D42B3
:1018A00024E0002C11DA002D0FDD0120144908601E
:1018B00000201449C1F89C01114908310860012039
:1018C0001049C1F8A401644210E001200C490860ED
:1018D00000200C49C1F89C01012009490831086029
:1018E00000200849C1F8A4016D426442A1B2064833
:1018F000FFF7A5F9A9B20448FFF7A3F970BD0000EE
:1019000098012242000022420004004010B54FF42A
:10191000FA710846FFF79AFF4FF47A70FFF752FA10
:101920004FF4FA714842FFF791FF4FF4C870FFF788
:1019300049FA10BD54190008000000202C000000D6
:101940006C010008801900082C00002064060000CB
:1019500088010008000000000100000000A24A0405
:10196000000000000000000001020304060708094F
:101970000000000000000000000000000000000067
:0400000508000131BD
:00000001FF
