:020000040800F2
:1000000090060020CD010008B5070008430700084E
:10001000B1070008ED040008770D0008000000009B
:100020000000000000000000000000004908000877
:10003000F104000800000000CD0700085D09000879
:10004000E7010008E7010008E7010008E7010008F0
:10005000E7010008E7010008E7010008E7010008E0
:10006000E7010008E7010008E7010008E7010008D0
:10007000E7010008E7010008E7010008E7010008C0
:10008000E7010008E7010008E7010008E7010008B0
:10009000E7010008E7010008E7010008F50400088F
:1000A000E7010008E7010008E7010008E701000890
:1000B000E7010008E7010008E7010008E701000880
:1000C000E7010008E7010008E7010008E701000870
:1000D000E7010008ED0C0008E7010008E70100084F
:1000E000E7010008E7010008E7010008E701000850
:1000F000E7010008E7010008E7010008E701000840
:10010000E7010008E7010008E7010008E70100082F
:10011000E7010008E7010008E7010008E70100081F
:10012000E7010008E7010008E7010008E70100080F
:1001300000F002F800F03AF80AA090E8000C8244BF
:100140008344AAF10107DA4501D100F02FF8AFF29C
:10015000090EBAE80F0013F0010F18BFFB1A43F0A5
:1001600001031847A8170000C8170000103A24BF61
:1001700078C878C1FAD8520724BF30C830C144BF0C
:1001800004680C607047000000230024002500264E
:10019000103A28BF78C1FBD8520728BF30C148BFEA
:1001A0000B6070471FB51FBD10B510BD00F033F8D0
:1001B0001146FFF7F7FF00F02BFE00F051F803B4F3
:1001C000FFF7F2FF03BC00F0D8FD000009488047AC
:1001D00009480047FEE7FEE7FEE7FEE7FEE7FEE729
:1001E000FEE7FEE7FEE7FEE704480549054A064B41
:1001F00070470000610900083101000890000020EC
:100200009006002090020020900200207047704766
:10021000704770477047754600F028F8AE460500F5
:100220006946534620F00700854618B020B5FFF711
:10023000DBFFBDE820404FF000064FF000074FF015
:1002400000084FF0000B21F00701AC46ACE8C009F4
:10025000ACE8C009ACE8C009ACE8C0098D467047FD
:100260000446AFF300802046FFF7A9FF004870471F
:100270002C00002021B1826842F00102826003E07C
:10028000826822F0010282607047000010B50446C7
:100290001248844208D10121401500F0C5FA00211E
:1002A000601500F0C1FA17E00D48844208D1012121
:1002B000001500F0B9FA0021201500F0B5FA0BE0A6
:1002C0000848844208D10121C80300F0ADFA00219A
:1002D0004FF4004000F0A8FA10BD000000240140D7
:1002E00000280140003C0140014600208A6802F0DD
:1002F00004020AB1012000E0002070470146C86CEA
:1003000080B270470246002013680B400BB10120F9
:1003100000E000207047014600208A6802F00802D1
:100320000AB1012000E000207047000030B502460D
:100330000020002350680F4C20400D790C6844EADF
:1003400005242043506090680B4C2040D1E90254B2
:100350002C434D7944EA450420439060D06A20F450
:1003600070000C7C641EE4B2234340EA0350D06268
:1003700030BD0000FFFEF0FFFDF7F1FFF0B50446D1
:100380000D4600200021092D11DDE068A5F10A06C7
:1003900006EB4607072606FA07F18843A5F10A0689
:1003A00006EB460603FA06F10843E0600CE020691C
:1003B00005EB4507072606FA07F1884305EB4506D6
:1003C00003FA06F108432061072A0FDA606B561E14
:1003D00006EB86071F2606FA07F18843561E06EB32
:1003E000860605FA06F10843606322E00D2A0FDA5B
:1003F000206BD61F06EB86071F2606FA07F18843F7
:10040000D61F06EB860605FA06F10843206310E0C6
:10041000E06AA2F10D0606EB86071F2606FA07F131
:100420008843A2F10D0606EB860605FA06F108439D
:10043000E062F0BD816841F008018160704721B140
:10044000826842F4A002826003E0826822F4A00283
:1004500082607047816841F004018160704700004C
:1004600000B587B001214FF4017000F0CDF94FF4D1
:10047000004000F0ADF91F20ADF8040000208DF819
:10048000070001A9174800F09FF81748FFF7FEFE84
:10049000002002908DF80C008DF80D004FF46020C4
:1004A00004900020059001208DF8180002A90E4844
:1004B000FFF73CFF01210C48FFF7DCFE0A48FFF77D
:1004C000B9FF00BF0848FFF726FF0028FAD1064809
:1004D000FFF7C0FF00BF0448FFF706FF0028FAD16E
:1004E00007B000BD000801400024014000BFFEE746
:1004F0007047000010B5002406E001244FF4167187
:100500006FF0C70001F08EF92A480068012804D175
:100510002848001F00680028EFD006E002246FF092
:10052000C7014FF4167001F07DF92248006820B928
:100530002048001F00680128F0D01E4800680128EC
:100540002FD11C48001F006801282AD1012C04D19A
:100550001949C82001F066F905E0022C03D1C82131
:10056000154801F05FF900BF1349FA39084601F058
:1005700059F91048006820B10E48001F0068002893
:10058000F2D14FF41671084601F04CF9052000F045
:1005900019FC09493231484201F044F9DC2000F0ED
:1005A00011FC4FF4807000F009F8802000F006F88C
:1005B00010BD000020012242DAFDFFFF0149086062
:1005C00070470000140401402DE9F0410246002567
:1005D0000026002000230024002791F803C00CF01F
:1005E0000F0591F803C00CF0100CBCF1000F03D004
:1005F00091F802C04CEA050591F800C0BCF1000F6B
:1006000031D0146800202BE04FF0010C0CFA00F3FD
:10061000B1F800C00CEA03069E4220D183004FF0DF
:100620000F0C0CFA03F7BC4305FA03FC4CEA040474
:1006300091F803C0BCF1280F06D14FF0010C0CFA61
:1006400000FCC2F814C00AE091F803C0BCF1480FE6
:1006500005D14FF0010C0CFA00FCC2F810C0401C90
:100660000828D1D31460B1F800C0BCF1FF0F34DD0D
:10067000546800202EE000F1080C4FF0010808FA41
:100680000CF3B1F800C00CEA03069E4221D18300AE
:100690004FF00F0C0CFA03F7BC4305FA03FC4CEACD
:1006A000040491F803C0BCF1280F05D100F1080C37
:1006B00008FA0CF8C2F8148091F803C0BCF1480F96
:1006C00007D100F1080C4FF0010808FA0CF8C2F845
:1006D0001080401C0828CED35460BDE8F081000093
:1006E00010B504460723012221460948FFF746FEBC
:1006F00001210748FFF7A3FE00BF02210448FFF7CE
:1007000001FE0028F9D00248FFF7F8FD10BD0000F7
:10071000002401402DE9F04107460C460025002643
:1007200008E03846FFF7DCFF0544052000F04AFBEF
:10073000701CC6B2A642F4DBB5FBF4F080B2BDE893
:10074000F08100BFFEE7000008B50121082000F09D
:100750005BF80121102000F057F80121042000F07F
:1007600053F848208DF8030003208DF802004FF461
:100770008060ADF8000069460C48FFF725FF0820AF
:10078000ADF8000069460948FFF71EFF0120ADF8EB
:10079000000069460548FFF717FF4FF40050ADF819
:1007A000000069460148FFF70FFF08BD0010014037
:1007B00000BFFEE77047000002490143024A116092
:1007C000704700000000FA050CED00E070470000E3
:1007D00001460020034A506820F44040084350601E
:1007E000704700000010024029B1064AD269024356
:1007F000044BDA6104E0034AD2698243014BDA61B7
:10080000704700000010024029B1064A9269024375
:10081000044B9A6104E0034A92698243014B9A6156
:10082000704700000010024029B1064AD268024316
:10083000044BDA6004E0034AD2688243014BDA6079
:100840007047000000100240704710B500F002F839
:1008500010BD00000CB500200190009033480068E6
:1008600040F480303149086000BF3048006800F42F
:10087000003000900198401C0190009818B9019830
:10088000B0F5A06FF1D12948006800F4003010B134
:100890000120009001E0002000900098012843D141
:1008A0002348006840F010002149086008460068AD
:1008B00020F0030008600846006840F0020008606D
:1008C0001A48406819494860084640684860084628
:1008D000406840F4806048600846406820F47C101E
:1008E00048600846406840F4E810486008460068E0
:1008F00040F08070086000BF0C48006800F0007095
:100900000028F9D00948406820F0030007494860F2
:100910000846406840F00200486000BF0348406855
:1009200000F00C000828F9D10CBD000000100240B6
:1009300000200240042808D14FF0E021096941F06D
:1009400004014FF0E022116107E04FF0E021096956
:1009500021F004014FF0E022116170477047000060
:1009600010B51348006840F00100114908600846BE
:100970004068104908400E494860084600680E4922
:1009800008400B4908600846006820F48020086091
:100990000846406820F4FE0048604FF41F0088605D
:1009A000FFF753FF4FF000600449086010BD0000DE
:1009B000001002400000FFF8FFFFF6FE08ED00E027
:1009C00030B589B005460C4601210820FFF71CFF11
:1009D00001211020FFF718FF01210220FFF704FF7B
:1009E00018208DF8230003208DF822000120ADF897
:1009F000200008A93048FFF7E7FD0220ADF82000ED
:100A000008A92D48FFF7E0FD10208DF823000320F2
:100A10008DF822004020ADF8200008A92748FFF7F4
:100A2000D3FD8020ADF8200008A92448FFF7CCFDB5
:100A30004FF48070ADF8200008A92048FFF7C4FDEE
:100A40004FF40070ADF8200008A91C48FFF7BCFD6A
:100A5000ADF81850ADF814400020ADF81A00ADF80C
:100A6000160005A9164800F0EFF87020ADF8040054
:100A70000120ADF806000020ADF80A000220ADF814
:100A80000C0001A90E4800F035F801A90C4800F04F
:100A90008BF808210A4800F07DF80821084800F08A
:100AA000C1F80121064800F00DF80121044800F0CA
:100AB00015F809B030BD0000000C014000100140E5
:100AC0000004004021B1028842F08002028004E06C
:100AD00002884FF67F731A400280704721B1028866
:100AE00042F00102028004E002884FF6FE731A40D1
:100AF0000280704770B5002400220023058C4FF659
:100B0000FF6635400584028C8388848B4FF68F7591
:100B10002C404FF6FC752C400D882C434FF6FF55AA
:100B20002A400D894FF6FF7606EA05252A434D88AF
:100B300006EA05252A43154DA84202D0144DA842C5
:100B40001DD14FF2FF752A404D894FF6FF7606EA18
:100B500005252A434FF6FF352A408D8806EA0525EC
:100B60002A434EF6FF752B404DF6FF752B408D89BD
:100B700006EA05152B43CD8906EA05152B4383802C
:100B80008483CD888587028470BD0000002C0140DD
:100B9000003401400A460021818B4FF6F77319405B
:100BA000114381837047000070B5002200230024A8
:100BB000058C4EF6FF7635400584038C8488828B45
:100BC00048F6FF752A404FF6FF452A400D884FF63C
:100BD000FF7606EA05252A434DF6FF752B400D8961
:100BE00006EA05352B434D8806EA05352B430B4DA8
:100BF000A84202D00A4DA84208D14BF6FF752C40FE
:100C00008D894FF6FF7606EA85152C438480828312
:100C1000CD88A0F84050038470BD0000002C014036
:100C2000003401400A460021818B4FF2FF731940C6
:100C30004FF6FF7303EA02231943818370478187CC
:100C40007047A0F840107047002202881D4B984260
:100C50000ED01D4B98420BD0B0F1804F08D01B4BEB
:100C6000984205D01A4B984202D01A4B984204D1B0
:100C70004FF68F731A404B881A43174B984207D090
:100C8000164B984204D04FF6FF431A40CB881A43C4
:100C900002808B8883850B8803850A4B98420BD092
:100CA000094B984208D00E4B984205D00D4B984204
:100CB00002D00D4B984201D10B7A03860123838227
:100CC00070470000002C0140003401400004004047
:100CD00000080040000C00400010004000140040DC
:100CE00000400140004401400048014010B540F27E
:100CF0002551064800F010F838B1044800F036F8E5
:100D00000349087001200349088010BD00380140E4
:100D10002A0000202800002070B50246002400238D
:100D20000025002040F66A16B14200D100BFC1F391
:100D3000421501F01F03012606FA03F3012D02D12B
:100D40009689334006E0022D02D1168A334001E035
:100D5000968A33400C12012606FA04F416883440B1
:100D600013B10CB1012000E0002070BD014688885D
:100D7000C0F30800704700BFFEE7014600BF7047A0
:100D800010B56FF00400FFF7D5FD0A4800680A4966
:100D9000B0FBF1F0094908700846007800EB40010B
:100DA000C1EBC0104FF6FF7101EAC0000449088092
:100DB00010BD00000800002000127A001C00002076
:100DC0001E0000200146114A12884A434FF0E023DA
:100DD0005A6100229A611A46126942F001021A61B0
:100DE00000BF4FF0E022106900F001021AB100F4D8
:100DF0008032002AF5D04FF0E022126922F0010281
:100E00004FF0E0231A6100229A6170471E00002013
:100E1000FFF7B6FF4FF4A060FFF7CEFCFFF794FC9E
:100E2000002140F28330FFF7CBFDFFF719FB00BF35
:100E3000FE4800680028FBD100F054FD03E2FC48A6
:100E4000006800287ED002210020FFF763FC40F6F6
:100E5000FC01884259DD02210020FFF75BFC40F6CF
:100E6000FC01884252DD02210320FFF753FC0446B7
:100E700002210846FFF74EFC201A052846DD022114
:100E80000020FFF747FC044602210320FFF742FC45
:100E900084420ADC02210020FFF73CFC04460221C8
:100EA0000846FFF737FC8442D4DDE0480C38006880
:100EB00018B1DE482838006840B9DE49084600F01D
:100EC000B1FC4FF4E170FFF77DFF07E0D949084618
:100ED00000F0A8FC4FF49670FFF774FF002108465D
:100EE00000F0A0FC0520FFF76DFF40F28A21484288
:100EF00000F098FCB420FFF765FFCD48006808B902
:100F0000012000E00020CA490860A2E00221002080
:100F1000FFF700FC40F6FC01884254DD0221084640
:100F2000FFF7F8FB044602210320FFF7F3FB201A2A
:100F3000052848DD02210020FFF7ECFB04460221D2
:100F4000032000E0E8E1FFF7E5FB84420ADC022130
:100F50000020FFF7DFFB044602210846FFF7DAFB1B
:100F6000844276DDB1480C38006818B1AF482838A3
:100F7000006840B9AF49084600F054FC4FF4E170F6
:100F8000FFF720FF07E0AB49084600F04BFC4FF4A9
:100F90009670FFF717FF0021084600F043FC05207C
:100FA000FFF710FFA349F831484200F03BFCB420A2
:100FB000FFF708FF9E48006808B9012000E0002004
:100FC0009B49086045E002210020FFF7A3FB40F6A3
:100FD000FC0188423DDD02210020FFF79BFB044617
:100FE00002210320FFF796FB84420ADC0221002045
:100FF000FFF790FB044602210846FFF78BFB844273
:1010000027DD8A480C38006818B1884828380068FD
:1010100040B98849084600F005FC4FF4E170FFF73D
:10102000D1FE07E08349084600F0FCFB4FF49670C0
:10103000FFF7C8FE0021084600F0F4FB0520FFF78B
:10104000C1FE7B48006808B9012000E00020784913
:1010500008607748006800287AD074480C38006827
:1010600040B940F28A21084600F0DCFB01207049BB
:101070000860CCE36D482838006840B96D49F83104
:10108000084600F0CFFB002069490860BFE36748CD
:101090003438006898BB4FF41671674800F0C2FB03
:1010A00000206649086007E00120FFF78BFE6348D7
:1010B0000068401C6149086060480068B0F5167F10
:1010C00008DA5A480C38006820B1584828380068B7
:1010D0000028E9D155480C38006828B940F28A2127
:1010E000084600F09FFB92E350482838006800282B
:1010F000BFD151496439084600F094FB87E3FFE70C
:101100004A48006880BB4C494FF4167000F08AFBD7
:1011100000204A49086007E00120FFF753FE4748D6
:101120000068401C4549086044480068B0F5167FD7
:1011300004DA3E480C3800680028EDD13B480C38F2
:10114000006830B940F28A21084600F06BFB5EE38C
:1011500027E036482838006800288AD136496439A3
:10116000084600F05FFB52E3FFE702210020FFF793
:10117000D1FA40F2D66188420DDD02210020FFF74E
:10118000C9FA40F6FC01884205DA4FF4C8710846F6
:1011900000F048FB3BE34FF4F071084600F042FBDF
:1011A00035E322480C38006840B940F28A210846ED
:1011B00000F038FB01201E49086028E31B4828384E
:1011C000006840B91C496439084600F02BFB002038
:1011D000174908601BE315483438006880BB16497E
:1011E0004FF4167000F01EFB00201449086007E061
:1011F0000120FFF7E7FD11480068401C0F49086017
:101200000E480068B0F5167F08DA08480C38006808
:1012100020B10648283800680028E9D103480C3876
:10122000006888B940F28A2108460AE03401224267
:10123000040000207EFCFFFFDAFDFFFF000000201D
:101240000BE000F0EFFAE2E2F748006800288AD1EC
:10125000F649084600F0E6FAD9E2F348283000687B
:1012600070BB4FF41671F148643000F0DBFA0020D7
:10127000EF49086007E00120FFF7A4FDEC48006893
:10128000401CEB490860EA480068B0F5167F04DAB4
:10129000E5481C3000680028EDD1E3481C300068A8
:1012A00028B940F28A21084600F0BCFAAFE2DE48D5
:1012B000006800288ED1DD49084600F0B3FAA6E2A6
:1012C00002210320FFF726FA40F2AA51884207DDE7
:1012D00002210320FFF71EFA40F23A7188420FDB29
:1012E00002210846FFF716FA40F2AA5188420DDDA6
:1012F00002210846FFF70EFA40F23A71884205DAF9
:10130000CA49FA31084600F08DFA80E2C749AA318D
:10131000084600F087FA7AE202210320FFF7FAF983
:1013200040F23A71884207DC02210846FFF7F2F9E1
:1013300040F23A71884261DD02210320FFF7EAF9A9
:1013400040F23A71884207DC02210846FFF7E2F9D1
:1013500040F23A71884252DD02210320FFF7DAF9A8
:10136000044602210846FFF7D5F9201A052846DD74
:1013700002210320FFF7CEF9044602210020FFF7E7
:10138000C9F984420ADC02210846FFF7C3F9044682
:1013900002210020FFF7BEF98442CCDDA2481C30B8
:1013A000006810B1A048006848B940F28231084690
:1013B00000F038FA4FF4E170FFF704FD08E040F266
:1013C0008231084600F02EFA4FF49670FFF7FAFCCF
:1013D0000021084600F026FA0520FFF7F3FC9349A8
:1013E000484200F01FFAB420FFF7ECFC9148006877
:1013F00008B9012000E000208E490860B2E0022117
:101400000320FFF787F940F23A71884207DC022196
:101410000846FFF77FF940F23A71884253DD022116
:101420000846FFF777F9044602210320FFF772F917
:10143000201A052847DD02210320FFF76BF9044637
:1014400002210020FFF766F984420ADC02210846E7
:10145000FFF760F9044602210020FFF75BF98442A0
:1014600030DD71481C30006810B16F48006848B921
:1014700040F28231084600F0D5F94FF4E170FFF7F1
:10148000A1FC08E040F28231084600F0CBF94FF4AD
:101490009670FFF797FC0021084600F0C3F905207D
:1014A000FFF790FC40F28A21484200F0BBF9B420DB
:1014B000FFF788FC5F48006808B9012000E00020C1
:1014C0005C4908604EE002210320FFF723F940F257
:1014D0003A71884207DC02210846FFF71BF940F207
:1014E0003A7188423EDD02210320FFF713F90446DA
:1014F00002210020FFF70EF984420ADC022108468F
:10150000FFF708F9044602210020FFF703F984429F
:1015100028DD45481C30006810B14348006848B9D0
:1015200040F28231084600F07DF94FF4E170FFF798
:1015300049FC08E040F28231084600F073F94FF4AC
:101540009670FFF73FFC0021084600F06BF905207C
:10155000FFF738FC3748006808B9012000E0002098
:101560003449086033480068F0B32F481C300068E5
:1015700040B940F28A21084600F054F901202D4973
:10158000086044E12848006838B92849084600F056
:1015900049F900202749086039E123480C380068E0
:1015A00098BB4FF416712148643000F03BF90020DD
:1015B0001F49086007E00120FFF704FC1C48006891
:1015C000401C1B4908601A480068B0F5167F07DA0E
:1015D00015481C30006818B1134800680028EAD18B
:1015E00011481C30006800E067E028B940F28A2109
:1015F000084600F017F90AE10B4800680028C0D13E
:101600000A49084600F00EF901E1FFE706482830D4
:101610000068A8BB054964314FF4167000F002F968
:101620000020034908600FE00C01224276FDFFFF15
:1016300000000020040000200120FFF7C3FB7548D4
:101640000068401C7349086072480068B0F5167F56
:1016500003DA714800680028EED16F48006828B9A5
:1016600040F28A21084600F0DDF8D0E06A481C38D4
:101670000068002803D16949084600F0D3F8C6E0A5
:10168000FFE702210020FFF745F840F2D6618842CB
:101690000DDD02210020FFF73DF840F6FC018842F5
:1016A00005DA4FF4C871084600F0BCF8AFE04FF41B
:1016B000F071084600F0B6F8A9E05748006840B954
:1016C00040F28A21084600F0ADF801205449086034
:1016D0009DE051481C38006838B95049084600F070
:1016E000A1F800204E49086091E04B482838006876
:1016F00080BB4A4964314FF4167000F093F8002023
:101700004449086007E00120FFF75CFB414800689E
:10171000401C404908603F480068B0F5167F07DA72
:101720003D48006820B13C481C3800680028EAD1D8
:101730003948006828B940F28A21084600F072F85A
:1017400065E035481C38006860BB3449084600F045
:1017500069F85CE0FFE730480C30006860BB4FF48C
:1017600016712E48643000F05DF8002029490860A9
:1017700007E00120FFF726FB26480068401C2549AA
:10178000086024480068B0F5167F03DA2248006834
:101790000028EED12048006828B940F28A21084686
:1017A00000F040F833E01C481C38006848BB1B4977
:1017B000084600F037F82AE002210320FEF7AAFFCE
:1017C00040F2AA51884207DD02210320FEF7A2FF62
:1017D00040F23A7188420FDB02210846FEF79AFF79
:1017E00040F2AA5188420DDD02210846FEF792FF21
:1017F00040F23A71884205DA0849FA31084600F0A9
:1018000011F804E00549AA31084600F00BF8FFF78B
:1018100016BB0000000000202801224276FDFFFFD9
:101820000400002070B504460D46002C11DB002D8D
:101830000FDB00202849086001202849C1F89C01DD
:10184000002025490831086001202449C1F8A4017D
:1018500038E0002C11DD002D0FDA00201E49086051
:1018600001201E49C1F89C011B4908310860002075
:101870001A49C1F8A4016D4224E0002C11DA002DB0
:101880000FDD01201449086000201449C1F89C01B3
:1018900011490831086001201049C1F8A4016442CF
:1018A00010E001200C49086000200C49C1F89C019F
:1018B000012009490831086000200849C1F8A40145
:1018C0006D426442A1B20648FFF7B9F9A9B20448D3
:1018D000FFF7B7F970BD00009801224200002242D4
:1018E0000004004010B54FF4FA710846FFF79AFF64
:1018F0004FF47A70FFF766FA4FF4FA714842FFF737
:1019000091FF4FF4C870FFF75DFA10BD2C19000865
:10191000000000202C0000006C010008581900088D
:101920002C00002064060000880100080000000070
:101930000100000000A24A040000000000000000B6
:10194000010203040607080900000000000000006F
:0819500000000000000000008F
:0400000508000131BD
:00000001FF
