:020000040800F2
:1000000098060020CD010008F50900085B090008EA
:10001000F1090008ED0400082F100008000000009E
:10002000000000000000000000000000F90A0008C5
:10003000F1040008000000007D0A00080D0C000813
:10004000E7010008E7010008E7010008E7010008F0
:10005000E7010008E7010008E7010008E7010008E0
:10006000E7010008E7010008E7010008E7010008D0
:10007000E7010008E7010008E7010008E7010008C0
:10008000E7010008E7010008E7010008E7010008B0
:10009000E7010008E7010008E7010008F50400088F
:1000A000E7010008E7010008E7010008E701000890
:1000B000E7010008E7010008E7010008E701000880
:1000C000E7010008E7010008E7010008E701000870
:1000D000E7010008A50F0008E7010008E701000894
:1000E000E7010008E7010008E7010008E701000850
:1000F000E7010008E7010008E7010008E701000840
:10010000E7010008E7010008E7010008E70100082F
:10011000E7010008E7010008E7010008E70100081F
:10012000E7010008E7010008E7010008E70100080F
:1001300000F002F800F03AF80AA090E8000C8244BF
:100140008344AAF10107DA4501D100F02FF8AFF29C
:10015000090EBAE80F0013F0010F18BFFB1A43F0A5
:1001600001031847CC130000EC130000103A24BF21
:1001700078C878C1FAD8520724BF30C830C144BF0C
:1001800004680C607047000000230024002500264E
:10019000103A28BF78C1FBD8520728BF30C148BFEA
:1001A0000B6070471FB51FBD10B510BD00F033F8D0
:1001B0001146FFF7F7FF00F087FF00F051F803B496
:1001C000FFF7F2FF03BC00F034FF0000094880474E
:1001D00009480047FEE7FEE7FEE7FEE7FEE7FEE729
:1001E000FEE7FEE7FEE7FEE704480549054A064B41
:1001F00070470000110C0008310100089800002031
:10020000980600209802002098020020704770474E
:10021000704770477047754600F028F8AE460500F5
:100220006946534620F00700854618B020B5FFF711
:10023000DBFFBDE820404FF000064FF000074FF015
:1002400000084FF0000B21F00701AC46ACE8C009F4
:10025000ACE8C009ACE8C009ACE8C0098D467047FD
:100260000446AFF300802046FFF7A9FF004870471F
:100270003400002021B1826842F00102826003E074
:10028000826822F0010282607047000010B50446C7
:100290001248844208D10121401500F01DFC0021C4
:1002A000601500F019FC17E00D48844208D10121C7
:1002B000001500F011FC0021201500F00DFC0BE0F2
:1002C0000848844208D10121C80300F005FC002140
:1002D0004FF4004000F000FC10BD0000002401407D
:1002E00000280140003C0140014600208A6802F0DD
:1002F00004020AB1012000E0002070470146C86CEA
:1003000080B270470246002013680B400BB10120F9
:1003100000E000207047014600208A6802F00802D1
:100320000AB1012000E000207047000030B502460D
:100330000020002350680F4C20400D790C6844EADF
:1003400005242043506090680B4C2040D1E90254B2
:100350002C434D7944EA450420439060D06A20F450
:1003600070000C7C641EE4B2234340EA0350D06268
:1003700030BD0000FFFEF0FFFDF7F1FFF0B50446D1
:100380000D4600200021092D11DDE068A5F10A06C7
:1003900006EB4607072606FA07F18843A5F10A0689
:1003A00006EB460603FA06F10843E0600CE020691C
:1003B00005EB4507072606FA07F1884305EB4506D6
:1003C00003FA06F108432061072A0FDA606B561E14
:1003D00006EB86071F2606FA07F18843561E06EB32
:1003E000860605FA06F10843606322E00D2A0FDA5B
:1003F000206BD61F06EB86071F2606FA07F18843F7
:10040000D61F06EB860605FA06F10843206310E0C6
:10041000E06AA2F10D0606EB86071F2606FA07F131
:100420008843A2F10D0606EB860605FA06F108439D
:10043000E062F0BD816841F008018160704721B140
:10044000826842F4A002826003E0826822F4A00283
:1004500082607047816841F004018160704700004C
:1004600000B587B001214FF4017000F025FB4FF477
:10047000004000F005FB1F20ADF8040000208DF8BF
:10048000070001A9174800F063F91748FFF7FEFEBF
:10049000002002908DF80C008DF80D004FF46020C4
:1004A00004900020059001208DF8180002A90E4844
:1004B000FFF73CFF01210C48FFF7DCFE0A48FFF77D
:1004C000B9FF00BF0848FFF726FF0028FAD1064809
:1004D000FFF7C0FF00BF0448FFF706FF0028FAD16E
:1004E00007B000BD000801400024014000BFFEE746
:1004F0007047000010B5002406E001244FF4167187
:100500006FF0C70000F058FF2A480068012804D1A6
:100510002848001F00680028EFD006E002246FF092
:10052000C7014FF4167000F047FF2248006820B959
:100530002048001F00680128F0D01E4800680128EC
:100540002FD11C48001F006801282AD1012C04D19A
:100550001949C82000F030FF05E0022C03D1C82162
:10056000154800F029FF00BF1349FA39084600F08A
:1005700023FF1048006820B10E48001F00680028C3
:10058000F2D14FF41671084600F016FF052000F076
:1005900075FD09493231484200F00EFFDC2000F0C1
:1005A0006DFD4FF4807000F063F8802000F060F87B
:1005B00010BD000020012242DAFDFFFF1FB501211E
:1005C000102000F079FA0121274800F04DF94FF48E
:1005D0008070ADF80C0028208DF80F0003A9234887
:1005E00000F0B6F88020ADF80C0028208DF80F0040
:1005F00003A91E4800F0ACF80121084600F05CFA9F
:100600000821022000F084F84FF48070019000204F
:100610008DF8080008208DF8090001208DF80A00E7
:1006200001A800F02BF80721022000F071F88020CB
:10063000019000208DF8080008208DF809000120A5
:100640008DF80A0001A800F019F817208DF80000B5
:1006500002208DF8010001208DF802008DF80300C2
:10066000684600F0C9F91FBD0002300000100140CB
:10067000014908607047000014040140002123492B
:100680008279002A3AD00A46126803689A430B46D8
:100690001A600A1D126803689A430B1D1A600279DA
:1006A00011440A6803681A430A60184A083212683B
:1006B00003689A43154B08331A601A1D12680368C1
:1006C0009A43124B0C331A604279102A0ED11A1F2A
:1006D000126803681A430D4B08331A601A1D12681A
:1006E00003681A43094B0C331A600DE0074942793D
:1006F00011440A6803681A430A6005E0027911444C
:100700000A6803689A430A607047000000040140C9
:1007100030B500228B071C0F0F2303FA04F20B4B9A
:100720008C1053F824309343084C8D1044F8253036
:1007300023468C1053F824308C07240F00FA04F45D
:100740002343024C8D1044F8253030BD0800014091
:100750002DE9F04102460025002600200023002458
:10076000002791F803C00CF00F0591F803C00CF0BE
:10077000100CBCF1000F03D091F802C04CEA050543
:1007800091F800C0BCF1000F31D0146800202BE0BC
:100790004FF0010C0CFA00F3B1F800C00CEA0306AC
:1007A0009E4220D183004FF00F0C0CFA03F7BC439C
:1007B00005FA03FC4CEA040491F803C0BCF1280FCD
:1007C00006D14FF0010C0CFA00FCC2F814C00AE08C
:1007D00091F803C0BCF1480F05D14FF0010C0CFAA1
:1007E00000FCC2F810C0401C0828D1D31460B1F836
:1007F00000C0BCF1FF0F34DD546800202EE000F192
:10080000080C4FF0010808FA0CF3B1F800C00CEA2C
:1008100003069E4221D183004FF00F0C0CFA03F720
:10082000BC4305FA03FC4CEA040491F803C0BCF194
:10083000280F05D100F1080C08FA0CF8C2F8148052
:1008400091F803C0BCF1480F07D100F1080C4FF03C
:10085000010808FA0CF8C2F81080401C0828CED312
:100860005460BDE8F0810000F0B50A460023002482
:100870000021002500F00046B6F1004F02D11D4EC8
:10088000F16901E01B4E7168C0F3034583B200F4C7
:100890004016B6F5401F08D121F07061154E7668FC
:1008A00026F07066134F7E6012E000F48016B6F5F5
:1008B000801F06D1032606FA05F4A14341F07061BA
:1008C00006E0460D360103FA06F6B14341F07061C9
:1008D00022B1460D360103FA06F6314300F0004618
:1008E000B6F1004F02D1034EF16101E0014E71609B
:1008F000F0BD00000000014010B5044607230122AE
:1009000021460948FFF73AFD01210748FFF797FD07
:1009100000BF02210448FFF7F5FC0028F9D0024887
:10092000FFF7ECFC10BD0000002401402DE9F04170
:1009300007460C460025002608E03846FFF7DCFF96
:100940000544052000F09AFB701CC6B2A642F4DBF9
:10095000B5FBF4F080B2BDE8F08100BFFEE7000017
:1009600008B50121082000F0A7F80121102000F0AF
:10097000A3F80121202000F09FF848208DF8030003
:1009800003208DF802008020ADF80000694615486C
:10099000FFF7DEFE4FF48070ADF8000069461148A5
:1009A000FFF7D6FE4FF40070ADF8000069460D4821
:1009B000FFF7CEFE4020ADF8000069460A48FFF779
:1009C000C7FE4FF48040ADF8000069460748FFF7C6
:1009D000BFFE4FF40040ADF8000069460348FFF742
:1009E000B7FE08BD000C014000100140001401409A
:1009F00000BFFEE77047000070B5002100230F2202
:100A0000C47804B3154C246804F4E064C4F5E064CD
:100A1000210AC1F10403CA40447804FA03F184783E
:100A20001440214309010E4C0678A155047804F0C6
:100A30001F050124AC4005786D11AD0005F1E025DE
:100A4000C5F8004109E0047804F01F050124AC401A
:100A5000044D0678761145F8264070BD0CED00E097
:100A600000E400E080E100E002490143024A116035
:100A7000704700000000FA050CED00E07047000030
:100A800001460020034A506820F44040084350606B
:100A9000704700000010024029B1064AD2690243A3
:100AA000044BDA6104E0034AD2698243014BDA6104
:100AB000704700000010024029B1064A92690243C3
:100AC000044B9A6104E0034A92698243014B9A61A4
:100AD000704700000010024029B1064AD268024364
:100AE000044BDA6004E0034AD2688243014BDA60C7
:100AF0007047000000100240704710B500F002F887
:100B000010BD00000CB50020019000903348006833
:100B100040F480303149086000BF3048006800F47C
:100B2000003000900198401C0190009818B901987D
:100B3000B0F5A06FF1D12948006800F4003010B181
:100B40000120009001E0002000900098012843D18E
:100B50002348006840F010002149086008460068FA
:100B600020F0030008600846006840F002000860BA
:100B70001A48406819494860084640684860084675
:100B8000406840F4806048600846406820F47C106B
:100B900048600846406840F4E8104860084600682D
:100BA00040F08070086000BF0C48006800F00070E2
:100BB0000028F9D00948406820F003000749486040
:100BC0000846406840F00200486000BF03484068A3
:100BD00000F00C000828F9D10CBD00000010024004
:100BE00000200240042808D14FF0E021096941F0BB
:100BF00004014FF0E022116107E04FF0E0210969A4
:100C000021F004014FF0E0221161704770470000AD
:100C100010B51348006840F001001149086008460B
:100C20004068104908400E494860084600680E496F
:100C300008400B4908600846006820F480200860DE
:100C40000846406820F4FE0048604FF41F008860AA
:100C5000FFF753FF4FF000600449086010BD00002B
:100C6000001002400000FFF8FFFFF6FE08ED00E074
:100C700030B589B005460C4601210420FFF71CFF62
:100C800001210820FFF718FF01211020FFF714FFB2
:100C900001210220FFF700FF18208DF82300032018
:100CA0008DF822000120ADF8200008A92F48FFF799
:100CB0004FFD0220ADF8200008A92C48FFF748FDA1
:100CC00010208DF8230003208DF822001020ADF8AD
:100CD000200008A92648FFF73BFD2020ADF82000A2
:100CE00008A92348FFF734FD4020ADF8200008A9EB
:100CF0002048FFF72DFD8020ADF8200008A91D48F1
:100D0000FFF726FDADF81850ADF814400020ADF8FF
:100D10001A00ADF8160005A9174800F0F1F8702088
:100D2000ADF804000120ADF806000020ADF80A007F
:100D30000220ADF80C0001A90F4800F037F801A916
:100D40000D4800F08DF808210B4800F07FF80821CD
:100D5000094800F0C3F80121074800F00FF801210D
:100D6000054800F017F809B030BD0000000C014044
:100D700000100140000801400004004021B1028839
:100D800042F08002028004E002884FF67F731A402E
:100D90000280704721B1028842F00102028004E023
:100DA00002884FF6FE731A400280704770B5002427
:100DB00000220023058C4FF6FF6635400584028C27
:100DC0008388848B4FF68F752C404FF6FC752C4032
:100DD0000D882C434FF6FF552A400D894FF6FF76BC
:100DE00006EA05252A434D8806EA05252A43154DBE
:100DF000A84202D0144DA8421DD14FF2FF752A40DF
:100E00004D894FF6FF7606EA05252A434FF6FF3552
:100E10002A408D8806EA05252A434EF6FF752B40A9
:100E20004DF6FF752B408D8906EA05152B43CD89BC
:100E300006EA05152B4383808483CD888587028449
:100E400070BD0000002C0140003401400A46002122
:100E5000818B4FF6F773194011438183704700006F
:100E600070B5002200230024058C4EF6FF76354035
:100E70000584038C8488828B48F6FF752A404FF6E0
:100E8000FF452A400D884FF6FF7606EA05252A43DE
:100E90004DF6FF752B400D8906EA05352B434D882D
:100EA00006EA05352B430B4DA84202D00A4DA84255
:100EB00008D14BF6FF752C408D894FF6FF7606EA78
:100EC00085152C4384808283CD88A0F8405003840C
:100ED00070BD0000002C0140003401400A46002192
:100EE000818B4FF2FF7319404FF6FF7303EA022321
:100EF00019438183704781877047A0F8401070477D
:100F0000002202881D4B98420ED01D4B98420BD0F8
:100F1000B0F1804F08D01B4B984205D01A4B984235
:100F200002D01A4B984204D14FF68F731A404B8867
:100F30001A43174B984207D0164B984204D04FF6ED
:100F4000FF431A40CB881A4302808B8883850B8825
:100F500003850A4B98420BD0094B984208D00E4BA0
:100F6000984205D00D4B984202D00D4B984201D1CA
:100F70000B7A03860123838270470000002C014016
:100F8000003401400004004000080040000C004014
:100F900000100040001400400040014000440140A7
:100FA0000048014010B540F22551064800F010F805
:100FB00038B1044800F036F80349087001200349AD
:100FC000088010BD003801403200002030000020B1
:100FD00070B50246002400230025002040F66A1662
:100FE000B14200D100BFC1F3421501F01F03012639
:100FF00006FA03F3012D02D19689334006E0022D53
:1010000002D1168A334001E0968A33400C12012641
:1010100006FA04F41688344013B10CB1012000E044
:10102000002070BD01468888C0F30800704700BFEB
:10103000FEE7014600BF704710B56FF00400FFF7F0
:10104000D1FD0A4800680A49B0FBF1F0094908706F
:101050000846007800EB4001C1EBC0104FF6FF716D
:1010600001EAC0000449088010BD00001000002003
:1010700000127A0024000020260000200146114AB8
:1010800012884A434FF0E0235A6100229A611A46BF
:10109000126942F001021A6100BF4FF0E0221069AC
:1010A00000F001021AB100F48032002AF5D04FF0AE
:1010B000E022126922F001024FF0E0231A610022BF
:1010C0009A61704726000020FFF7B6FF4FF4A0603A
:1010D000FFF7CAFCFFF744FC002140F28330FFF722
:1010E000C7FDFFF7BDF900BFAB4800680028FBD182
:1010F000AA4800680028F7D100F0FCF9FFF75EFA73
:1011000049E10A210220FFF711FCA54908600A21E4
:101110000320FFF70BFCA34908600A210020FFF71A
:1011200005FCA14908600846006840F63401884281
:1011300008DC99480838006820B19748001F00680B
:10114000002875D10220FFF799FF9748006840F604
:101150003401884208DC90480838006820B18E4885
:10116000001F006800282AD18F48006840F634012B
:10117000884207DC88480838006808BB8648001F9A
:101180000068E8B90220FFF779FF8748006840F659
:101190003401884207DC80480838006838B97E4846
:1011A000001F006818B90021084600F005F9022068
:1011B000FFF764FF4FF41671084600F0FDF8E8E011
:1011C000754808380068A8B97348001F006888B1DE
:1011D0000220FFF753FF7048083800680028EED15E
:1011E0006D48001F00680028E9D0C821484200F07F
:1011F000E3F8CEE06848083800680028DFD0664889
:10120000001F00680028DAD10520FFF737FF624889
:10121000083800680028D2D05F48001F0068002806
:10122000CDD16FF0C701C82000F0C6F8B1E0FFE7EC
:101230005948006810B15948006878BB0520FFF78D
:101240001DFF5548006818B1544800680028B6D101
:101250005649484200F0B0F800205549086007E0C0
:101260000120FFF70BFF52480068401C50490860FE
:101270004F480068B0F5FA7F0FDA47480838006831
:1012800000280AD04448001F0068002805D04648BE
:10129000006840F634018842E2DD7AE0FFE740482A
:1012A000006840F63401884203DC3E48006888420A
:1012B00030DD0520FFF7E2FE3948006840F63401D2
:1012C000884203DC37480068884262DD374948427B
:1012D00000F072F800203649086007E00120FFF7AF
:1012E000CDFE33480068401C314908603048006832
:1012F000B0F5FA7F4DDA284808380068F0B3264880
:10130000001F0068D0B32848006840F634018842C6
:10131000E4DD3EE02748006818B12648001D00685B
:1013200068BB0520FFF7AAFE2248006818B12148D3
:10133000001D006810BB4FF4C871484200F03CF833
:1013400000201B49086007E00120FFF797FE1848BE
:101350000068401C1649086015480068B0F5FA7F1F
:1013600017DA0D480838006840B10B48001F0068C4
:1013700020B10D48006840F6340101E009E002E0C8
:101380008842E1DD05E04FF4A0714FF4967000F063
:1013900013F800F071F8B4E62481214218012242CA
:1013A00004000020080000200C00002070FEFFFF59
:1013B000000000203881224270B504460D46002C02
:1013C00010DB002D0EDB0020264908600120264995
:1013D000C1F8940100202549086001202449C1F882
:1013E0009C0135E0002C10DD002D0EDA00201D4997
:1013F000086001201C49C1F894011C4908600020C4
:101400001B49C1F89C016D4222E0002C10DA002D2E
:101410000EDD01201349086000201349C1F8940132
:101420001249086001201249C1F89C0164420FE092
:1014300001200C49086000200B49C1F894010120EB
:101440000A49086000200A49C1F89C016D426442C3
:10145000A1B20848FFF74FFDA9B20648FFF74DFDBE
:1014600070BD0000900122420000224298012142FA
:10147000000021420004004010B51B48006800280D
:1014800031D01948001F006868B31848006850B38D
:101490001648001D006830B30A20FFF7EFFD124820
:1014A000006800B31048001F0068E0B10F480068F2
:1014B000C8B10E48001D0068A8B100BF0C4908461D
:1014C000FFF77AFF084800680028F7D10648001F98
:1014D00000680028F2D1064932314842FFF76CFF1C
:1014E0008C20FFF7CBFD10BD200122421C81214240
:1014F00076FDFFFF10B54FF416710846FFF75CFF4D
:101500004FF41670FFF7BAFD08494842FFF754FF41
:10151000C820FFF7B3FD4FF416710846FFF74CFFE4
:101520004FF49670FFF7AAFD10BD00000CFEFFFF00
:101530005015000800000020340000006C01000875
:1015400084150008340000206406000088010008AB
:10155000000000000000000000000000000000008B
:1015600000A24A0400000000000000000102030481
:10157000060708090000000000000000000000004D
:041580000000000067
:0400000508000131BD
:00000001FF
